S0160000493243456E636F6465724D696E692E7372656303
S113000006C120C11FC10BC21DC11CC11BC11AC125
S1130010BAC118C117C116C115C1DBC113C112C1C0
S113002011C110C10FC1D8C60DC10CC10BC10AC189
S113003009C108C1DFC3B3C38CC379C39BC33AC32B
S1130040C0C3E4C4DFC4D9C4D4C4CFC4CAC4C5C4FF
S1130050C0C4BBC4B6C4B1C4ACC4A7C4A2C49DC408
S113006098C493C48EC489C484C462C461C460C483
S11300705FC45EC45DC45CC45BC45AC459C458C480
S113008057C456C455C454C453C452C451C450C4B0
S11300904FC44EC44DC44CC44BC44AC449C448C4E0
S11300A047C446C445C444C443C442C441C440C410
S11300B03FC43EC43DC43CC43BC43AC439C438C440
S11300C037C436C435C434C433C432C431C430C470
S11300D02FC42EC42DC42CC42BC42AC429C428C4A0
S11300E027C426C425C424C423C422C421C420C4D0
S11300F01FC41EC41DC41CC41BC41AC419C418C400
S113010017C416C415C414C413C412C411C410C42F
S11301100FC40EC40DC40CC40BC40AC409C408C45F
S113012007C404C423C41DC4D8C4E6C47EC4E8C43C
S1130130EBC4EEC4F1C4F4C4F7C4FAC4FDC400C5EE
S113014003C506C509C50CC50FC512C515C518C517
S11301506CC46BC46AC469C468C467C466C465C437
S113016064C463C462C461C460C45FC45EC45DC467
S11301705CC45BC45AC459C458C457C456C455C497
S113018054C453C452C451C450C44FC44EC44DC4C7
S11301904CC44BC44AC449C448C447C446C445C4F7
S11301A044C443C442C441C440C43FC43EC43DC427
S11301B03CC43BC43AC439C438C437C436C435C457
S11301C034C433C432C431C430C42FC42EC42DC487
S11301D02CC42BC42AC429C428C427C426C425C4B7
S11301E024C423C422C421C420C41FC41EC41DC4E7
S11301F01CC41BC41AC419C418C417C416C415C417
S113020014C413C412C411C410C40FC436C41124BA
S11302101FBECFEFCDBFDFE3DEBF1FE3A0E0BFE330
S1130220E8ECFFE002C005900D92A430B107D9F7C5
S11302302FE3A4E0BFE301C01D92AC33B207E1F7A2
S113024002D5C0C6DDCE18C580911E3F80FF42C0D6
S113025081E08093143F80911E3F82FD41C08091D4
S11302601004877F8093100480911E3F87FF05C090
S113027088ED84BF81E08093410080911E3F81FF1F
S113028035C084E08093153F88E08093103F8BE075
S11302908093113F87E08093133F82E08093123F65
S11302A08DE080930F3F81E080930D3F8EE080933B
S11302B00E3F80911E3F8871A9F1883009F040C03B
S11302C08FEF8093123F80930F3F80930D3F809375
S11302D00E3F08951092143F80911E3F82FFBFCFBE
S11302E080911004886080931004BECF88E08093CE
S11302F0153F84E08093103F87E08093113F8BE0AB
S11303008093133F81E08093123F8EE080930F3FF0
S113031082E080930D3F8DE080930E3F80911E3FDD
S1130320887159F68FEF8093133F8093113F809328
S1130330123F80930F3F80930D3F80930E3F0895AB
S1130340089590912E3F892B80932E3F089590918C
S11303502E3F8091193F892311F0009A089808953F
S113036010922E3F009880911E3F82FD06C080911E
S11303701004877F8093100408958091100488608E
S11303808093100408951F920F920FB60F921124B8
S11303902F933F934F935F936F937F938F939F9389
S11303A0AF93BF93EF93FF934AD481E080930B0AFA
S11303B0FF91EF91BF91AF919F918F917F916F9139
S11303C05F914F913F912F910F900FBE0F901F900F
S11303D018951F920F920FB60F9211242F933F93EB
S11303E04F935F936F937F938F939F93AF93BF9339
S11303F0EF93FF9341D081E08093460AFF91EF9100
S1130400BF91AF919F918F917F916F915F914F9128
S11304103F912F910F900FBE0F901F9018951F9230
S11304200F920FB60F9211242F933F934F935F9324
S11304306F937F938F939F93AF93BF93EF93FF93A8
S113044013D089EC83B9FF91EF91BF91AF919F9144
S11304508F917F916F915F914F913F912F910F9069
S11304600FBE0F901F90189581E080938001109229
S11304704A0A10924B0A0895CF92DF92EF92FF92AC
S11304808091163F880F880F8093163F82B1909118
S1130490163F8295869586958370892B8093163FA7
S11304A08091163F8F708093163FC0901A3FD09072
S11304B01B3FE0901C3FF0901D3F9091163F8091B0
S11304C0153F981709F468C09091163F8091113F29
S11304D0981709F461C09091163F80910F3F9817C7
S11304E009F45AC09091163F8091123F981709F46D
S11304F053C09091163F8091103F981791F09091BE
S1130500163F8091133F981761F09091163F8091A8
S11305100E3F981731F09091163F80910D3F98133C
S113052049C08091253F9091263FA091273FB091EB
S1130530283FC81AD90AEA0AFB0A80E202DF80913E
S1130540143F8130D9F580912A3F90912B3FA0919F
S11305502C3FB0912D3F8C159D05AE05BF050CF4C5
S113056088C08091213F9091223FA091233FB09178
S1130570243FC816D906EA06FB060CF450C0C09204
S11305801A3FD0921B3FE0921C3FF0921D3FFF9018
S1130590EF90DF90CF90DBCE8091253F9091263F66
S11305A0A091273FB091283FC80ED91EEA1EFB1E1A
S11305B080E1C7DE8091143F813029F280912A3F87
S11305C090912B3FA0912C3FB0912D3F8C159D0510
S11305D0AE05BF05BCF18091213F9091223FA091CF
S11305E0233FB091243FC816D906EA06FB063CF621
S11305F08091213F9091223FA091233FB091243FCD
S113060080931A3F90931B3FA0931C3FB0931D3FD0
S113061080E897DEFF90EF90DF90CF9098CE8091A6
S11306202A3F90912B3FA0912C3FB0912D3F809376
S11306301A3F90931B3FA0931C3FB0931D3F80E84B
S113064080DEA5CF80912A3F90912B3FA0912C3F33
S1130650B0912D3F80931A3F90931B3FA0931C3F72
S1130660B0931D3F80E46DDEFF90EF90DF90CF905C
S11306706ECE8091213F9091223FA091233FB09173
S1130680243F80931A3F90931B3FA0931C3FB09349
S11306901D3F80E456DE7BCF8091073F9091083F59
S11306A020911F3F3091203F28173907B8F485E087
S11306B080930A3F1092073F1092083F82E041DE88
S11306C013991DC08091093F82330CF4E4C082E386
S11306D08093093F81E08093043F1EC0019680937C
S11306E0073F9093083FE0910A3F8E2F90E08730B8
S11306F0910508F00895FC01E65EFF4F099480918E
S1130700093F18160CF0F3C081508093093F809183
S1130710043F882309F4EFC086E080930A3F809168
S11307201F3F9091203F892B09F0B2C010CE13993E
S113073076C08091093F91E0980F9093093F8233EE
S11307400CF475C082E38093093F81E08093043FF9
S11307500895139983C08091093F82330CF4A3C098
S113076082E38093093F81E08093043F83E0809398
S11307700A3F08951092073F1092083F8091053F69
S11307809091063F20911F3F3091203F2817390751
S113079070F101968093053F9093063F0895139955
S11307A04CC08091093F91E0980F9093093F8233A8
S11307B04CF68091043F81119DCF82E080930A3FE3
S11307C008951092073F1092083F13993FC08091FB
S11307D0093F91E0980F9093093F82330CF0B2CF18
S11307E08091043F811186CF81E0ABDDB0DD1092B2
S11307F00A3F08951092073F1092083F13993BC097
S11308008091093F82330CF44AC082E38093093F0C
S113081081E08093043F81E080930A3F08958091B2
S1130820093F18160CF052C081508093093F809103
S1130830043F882309F44EC008958091093F181697
S11308400CF03FC081508093093FB3CF8091093FA2
S1130850181694F581508093093FC2CF8091093FC7
S11308609FEF980F9093093F18160CF58091043F61
S113087081117CCF08958091093F9FEF980F909349
S1130880093F1816A4F48091043F8111C4CF089540
S113089088E057DD5CCD8F5F8093093F38CF8F5F51
S11308A08093093FF0CF8F5F8093093FDFCF109291
S11308B0093F1092043F08951092093F1092043F9B
S11308C093CF1092093F1092043F77CF1092093FC3
S11308D01092043F1092073F1092083F1092053F78
S11308E01092063F84E080930A3F2BDD30CD1092B6
S11308F0093F1092043F10920A3F81E022DD27CD88
S11309000895FFCF1092293FFDC2CF93DF931F922A
S1130910CDB7DEB71982E0910C3F8E2F90E083377C
S1130920910530F4FC01EF5DFF4F099489E389835D
S113093080910C3F813848F080910C3F80910C3FAE
S113094090E080589109FDD289838981D4D2DAD28A
S113095080910C3F8F5F80930C3F0F90DF91CF917C
S1130960089580E090E0EDD28983E2CF81E189832C
S1130970DFCF8091173F8983DBCF8091253F898327
S1130980D7CF8091263F8983D3CF8091273F898316
S1130990CFCF8091283F8983CBCF8091213F89831A
S11309A0C7CF8091223F8983C3CF8091233F89831E
S11309B0BFCF8091243F8983BBCF80912A3F898315
S11309C0B7CF80912B3F8983B3CF80912C3F89830C
S11309D0AFCF80912D3F8983ABCF80911A3F89831C
S11309E0A7CF80911B3F8983A3CF80911C3F89832C
S11309F09FCF80911D3F89839BCF80912E3F898318
S1130A00AFDC96CF8091193F898392CF80911E3FAE
S1130A1089838ECF8091293F882341F1E0910C3F57
S1130A208E2F90E08337910558F080910C3F8138E8
S1130A3058F468D280910C3F8F5F80930C3F0895E7
S1130A40FC01EC56FF4F099480910C3F51D2209148
S1130A500C3F30E0682FC9018058910976D252D2F8
S1130A6080910C3F8F5F80930C3F089541D2809317
S1130A700C3F81E08093293F45C23AD28093183FCE
S1130A80E0910B3F81E08E0F80930B3FF0E080916B
S1130A90183FE050F14C808380910B3F833028F263
S1130AA010920B3F9091003F8091013F9813BDCF6E
S1130AB09091003F8091023F9813B7CF6091183F07
S1130AC080E090E042D281E08093003F82E0809316
S1130AD0013F83E08093023FA8CF0AD280931E3F58
S1130AE080910C3F813808F059C00CD280910C3FA2
S1130AF08F5F80930C3FA8CBFBD18093193F95CF98
S1130B00F7D180931D3F91CFF3D180931C3F8DCFBC
S1130B10EFD180931B3F89CFEBD180931A3F85CFD0
S1130B20E7D180932D3F81CFE3D180932C3F7DCFBC
S1130B30DFD180932B3F79CFDBD180932A3F75CFD0
S1130B40D7D18093243F71CFD3D18093233F6DCFEE
S1130B50CFD18093223F69CFCBD18093213F65CF02
S1130B60C7D18093283F61CFC3D18093273F5DCF06
S1130B70BFD18093263F59CFBBD18093253F55CF1A
S1130B80B7D18093173F8091173F2AE0829FC0011D
S1130B90112480931F3F9093203F47CF80910C3FB7
S1130BA0A7D120910C3F30E0682FC90180589109EA
S1130BB0CCD19BCF10921E3F1092193F10922E3F22
S1130BC010921A3F10921B3F10921C3F10921D3F2F
S1130BD010922A3F10922B3F10922C3F10922D3FDF
S1130BE01092213F1092223F1092233F1092243FF3
S1130BF01092253F1092263F1092273F1092283FD3
S1130C001092173F80E090E09CD1880FE0E1F8E07B
S1130C10848781EE81878AE095E07DD185E894E040
S1130C2075D182E894E07CD180E894E07ED181E8BB
S1130C3094E080D182E894E073D1C8D005CB81E000
S1130C4080932F3F0895FFDAB5DF80912F3F8823EB
S1130C50E1F310922F3F20DDF8CF82E080938900EA
S1130C6080E0089541E068ED81E690E088D180E07D
S1130C700895789480E008950F931F93CF93DF93A2
S1130C8020E134E0F901808188608083C1E1D4E00F
S1130C9088818860888302E114E0F801808188609B
S1130CA0808383E194E0FC01408148604083E4E177
S1130CB0F4E0408148604083E5E1F4E0408148602D
S1130CC04083A6E1B4E04C9148604C9367E174E042
S1130CD0FB014081486040830098089AF9014081F3
S1130CE0477F408340814F7740834081487F4083E2
S1130CF003980B98FC0120812860208320812F77A2
S1130D0020832081287F208306980E988C91886008
S1130D108C938C918F778C938C91887F81608C934A
S1130D2007980F98FB0180818860808380818F778A
S1130D3080838081887F8160808394DF41D125D145
S1130D4030D120D0FCD095DF1ED1029A0A98F80148
S1130D508081877F808380818F7780838081887F73
S1130D608083019A09988881877F888388818F7717
S1130D7088838881887F88830AD0DF91CF911F91EF
S1130D800F916BCF81E08093920180E00895E0E1C0
S1130D90F8E080E4848783EE81871092323F1092DA
S1130DA0333F10923A3F10923B3F1092343F1092DF
S1130DB0353F1092303F1092313F1092363F1092DF
S1130DC0373F1092383F1092393F0895E0E1F8E040
S1130DD081858160818708951F920F920FB60F92CB
S1130DE011242F933F934F935F936F937F938F932C
S1130DF09F93AF93BF93EF93FF9380911B0883FF5F
S1130E0018C0E091363FF091373F309709F00995CB
S1130E10FF91EF91BF91AF919F918F917F916F91CE
S1130E205F914F913F912F910F900FBE0F901F90A4
S1130E30189580911B0882FF07C0E091383FF0911C
S1130E40393F309721F7E4CF80911B0886FD17C006
S1130E5080911B0887FD22C080911B0886FFD8CF94
S1130E6080911B0880FDD4CFE091303FF091313F59
S1130E70309709F0099582E080931A08C9CF8091D0
S1130E801B0880FFE5CFE091343FF091353F309768
S1130E9009F0099581E08093033FBACF80911B0844
S1130EA081FF15C080911B0884FF04C08091033F1B
S1130EB08823A9F01092033FE0913A3FF0913B3F21
S1130EC0309709F0099583E080931A08A1CFE09147
S1130ED0323FF091333F309709F099CF99CF809109
S1130EE01B08806C80931B0882E080931A0890CFC3
S1130EF080911D080895E0E1F8E08587828583608C
S1130F008287089583E080931A08089580933A3F76
S1130F1090933B3F08958093323F9093333F0895DD
S1130F208093343F9093353F08958093303F90935E
S1130F30313F08958093363F9093373F089580E082
S1130F4008959C5EFC01808108951F93CF93DF93E5
S1130F50EC01162F8091021081FDFCCF44E06DE975
S1130F6080E090E10CD0DC5E188343E06DE980E022
S1130F7090E105D080E0DF91CF911F910895FC01AD
S1130F8064BF4083089580E00895E0E0FAE081E0E2
S1130F90828780E792E086A397A389E0808380E03C
S1130FA00895E0E4FAE080E792E08487958786E498
S1130FB0818381E08483858385E4808380E0089550
S10B0FC080E00895F894FFCFCE
S1070FC8010203011A
S9030000FC
